{
    "contractName": "NFT",
    "abi": [
        {
            "inputs": [
                {
                    "internalType": "string",
                    "name": "name_",
                    "type": "string"
                },
                {
                    "internalType": "string",
                    "name": "symbol_",
                    "type": "string"
                },
                {
                    "internalType": "uint16",
                    "name": "_maxTokens",
                    "type": "uint16"
                },
                {
                    "internalType": "address",
                    "name": "_fixedOwnerAddress",
                    "type": "address"
                },
                {
                    "internalType": "string",
                    "name": "_baseURI",
                    "type": "string"
                }
            ],
            "stateMutability": "nonpayable",
            "type": "constructor"
        },
        {
            "anonymous": false,
            "inputs": [
                {
                    "indexed": true,
                    "internalType": "address",
                    "name": "owner",
                    "type": "address"
                },
                {
                    "indexed": true,
                    "internalType": "address",
                    "name": "approved",
                    "type": "address"
                },
                {
                    "indexed": true,
                    "internalType": "uint256",
                    "name": "tokenId",
                    "type": "uint256"
                }
            ],
            "name": "Approval",
            "type": "event"
        },
        {
            "anonymous": false,
            "inputs": [
                {
                    "indexed": true,
                    "internalType": "address",
                    "name": "owner",
                    "type": "address"
                },
                {
                    "indexed": true,
                    "internalType": "address",
                    "name": "operator",
                    "type": "address"
                },
                {
                    "indexed": false,
                    "internalType": "bool",
                    "name": "approved",
                    "type": "bool"
                }
            ],
            "name": "ApprovalForAll",
            "type": "event"
        },
        {
            "anonymous": false,
            "inputs": [
                {
                    "indexed": true,
                    "internalType": "string",
                    "name": "newBaseUri",
                    "type": "string"
                }
            ],
            "name": "BaseUriChanged",
            "type": "event"
        },
        {
            "anonymous": false,
            "inputs": [
                {
                    "indexed": false,
                    "internalType": "bool",
                    "name": "updatedMintStatus",
                    "type": "bool"
                }
            ],
            "name": "MintStatusChanged",
            "type": "event"
        },
        {
            "anonymous": false,
            "inputs": [
                {
                    "indexed": true,
                    "internalType": "address",
                    "name": "previousOwner",
                    "type": "address"
                },
                {
                    "indexed": true,
                    "internalType": "address",
                    "name": "newOwner",
                    "type": "address"
                }
            ],
            "name": "OwnershipTransferred",
            "type": "event"
        },
        {
            "anonymous": false,
            "inputs": [
                {
                    "indexed": true,
                    "internalType": "address",
                    "name": "from",
                    "type": "address"
                },
                {
                    "indexed": true,
                    "internalType": "address",
                    "name": "to",
                    "type": "address"
                },
                {
                    "indexed": true,
                    "internalType": "uint256",
                    "name": "tokenId",
                    "type": "uint256"
                }
            ],
            "name": "Transfer",
            "type": "event"
        },
        {
            "inputs": [
                {
                    "internalType": "address",
                    "name": "to",
                    "type": "address"
                },
                {
                    "internalType": "uint256",
                    "name": "tokenId",
                    "type": "uint256"
                }
            ],
            "name": "approve",
            "outputs": [],
            "stateMutability": "nonpayable",
            "type": "function"
        },
        {
            "inputs": [
                {
                    "internalType": "address",
                    "name": "owner",
                    "type": "address"
                }
            ],
            "name": "balanceOf",
            "outputs": [
                {
                    "internalType": "uint256",
                    "name": "",
                    "type": "uint256"
                }
            ],
            "stateMutability": "view",
            "type": "function"
        },
        {
            "inputs": [
                {
                    "internalType": "uint256",
                    "name": "tokenId",
                    "type": "uint256"
                }
            ],
            "name": "getApproved",
            "outputs": [
                {
                    "internalType": "address",
                    "name": "",
                    "type": "address"
                }
            ],
            "stateMutability": "view",
            "type": "function"
        },
        {
            "inputs": [],
            "name": "getBaseURI",
            "outputs": [
                {
                    "internalType": "string",
                    "name": "",
                    "type": "string"
                }
            ],
            "stateMutability": "view",
            "type": "function"
        },
        {
            "inputs": [],
            "name": "getLastTokenId",
            "outputs": [
                {
                    "internalType": "uint256",
                    "name": "",
                    "type": "uint256"
                }
            ],
            "stateMutability": "view",
            "type": "function"
        },
        {
            "inputs": [
                {
                    "internalType": "address",
                    "name": "owner",
                    "type": "address"
                },
                {
                    "internalType": "address",
                    "name": "operator",
                    "type": "address"
                }
            ],
            "name": "isApprovedForAll",
            "outputs": [
                {
                    "internalType": "bool",
                    "name": "",
                    "type": "bool"
                }
            ],
            "stateMutability": "view",
            "type": "function"
        },
        {
            "inputs": [],
            "name": "isMintEnabled",
            "outputs": [
                {
                    "internalType": "bool",
                    "name": "",
                    "type": "bool"
                }
            ],
            "stateMutability": "view",
            "type": "function"
        },
        {
            "inputs": [],
            "name": "maxTokens",
            "outputs": [
                {
                    "internalType": "uint16",
                    "name": "",
                    "type": "uint16"
                }
            ],
            "stateMutability": "view",
            "type": "function"
        },
        {
            "inputs": [
                {
                    "internalType": "uint256",
                    "name": "numberOfTokens",
                    "type": "uint256"
                },
                {
                    "internalType": "address",
                    "name": "userAddress",
                    "type": "address"
                }
            ],
            "name": "mint",
            "outputs": [],
            "stateMutability": "nonpayable",
            "type": "function"
        },
        {
            "inputs": [],
            "name": "name",
            "outputs": [
                {
                    "internalType": "string",
                    "name": "",
                    "type": "string"
                }
            ],
            "stateMutability": "view",
            "type": "function"
        },
        {
            "inputs": [],
            "name": "owner",
            "outputs": [
                {
                    "internalType": "address",
                    "name": "",
                    "type": "address"
                }
            ],
            "stateMutability": "view",
            "type": "function"
        },
        {
            "inputs": [
                {
                    "internalType": "uint256",
                    "name": "tokenId",
                    "type": "uint256"
                }
            ],
            "name": "ownerOf",
            "outputs": [
                {
                    "internalType": "address",
                    "name": "",
                    "type": "address"
                }
            ],
            "stateMutability": "view",
            "type": "function"
        },
        {
            "inputs": [],
            "name": "renounceOwnership",
            "outputs": [],
            "stateMutability": "nonpayable",
            "type": "function"
        },
        {
            "inputs": [
                {
                    "internalType": "address",
                    "name": "from",
                    "type": "address"
                },
                {
                    "internalType": "address",
                    "name": "to",
                    "type": "address"
                },
                {
                    "internalType": "uint256",
                    "name": "tokenId",
                    "type": "uint256"
                }
            ],
            "name": "safeTransferFrom",
            "outputs": [],
            "stateMutability": "nonpayable",
            "type": "function"
        },
        {
            "inputs": [
                {
                    "internalType": "address",
                    "name": "from",
                    "type": "address"
                },
                {
                    "internalType": "address",
                    "name": "to",
                    "type": "address"
                },
                {
                    "internalType": "uint256",
                    "name": "tokenId",
                    "type": "uint256"
                },
                {
                    "internalType": "bytes",
                    "name": "data",
                    "type": "bytes"
                }
            ],
            "name": "safeTransferFrom",
            "outputs": [],
            "stateMutability": "nonpayable",
            "type": "function"
        },
        {
            "inputs": [
                {
                    "internalType": "address",
                    "name": "operator",
                    "type": "address"
                },
                {
                    "internalType": "bool",
                    "name": "approved",
                    "type": "bool"
                }
            ],
            "name": "setApprovalForAll",
            "outputs": [],
            "stateMutability": "nonpayable",
            "type": "function"
        },
        {
            "inputs": [
                {
                    "internalType": "string",
                    "name": "_baseURI",
                    "type": "string"
                }
            ],
            "name": "setBaseURI",
            "outputs": [],
            "stateMutability": "nonpayable",
            "type": "function"
        },
        {
            "inputs": [
                {
                    "internalType": "bytes4",
                    "name": "interfaceId",
                    "type": "bytes4"
                }
            ],
            "name": "supportsInterface",
            "outputs": [
                {
                    "internalType": "bool",
                    "name": "",
                    "type": "bool"
                }
            ],
            "stateMutability": "view",
            "type": "function"
        },
        {
            "inputs": [],
            "name": "symbol",
            "outputs": [
                {
                    "internalType": "string",
                    "name": "",
                    "type": "string"
                }
            ],
            "stateMutability": "view",
            "type": "function"
        },
        {
            "inputs": [],
            "name": "toggleMintStatus",
            "outputs": [],
            "stateMutability": "nonpayable",
            "type": "function"
        },
        {
            "inputs": [
                {
                    "internalType": "uint256",
                    "name": "index",
                    "type": "uint256"
                }
            ],
            "name": "tokenByIndex",
            "outputs": [
                {
                    "internalType": "uint256",
                    "name": "",
                    "type": "uint256"
                }
            ],
            "stateMutability": "view",
            "type": "function"
        },
        {
            "inputs": [
                {
                    "internalType": "address",
                    "name": "owner",
                    "type": "address"
                },
                {
                    "internalType": "uint256",
                    "name": "index",
                    "type": "uint256"
                }
            ],
            "name": "tokenOfOwnerByIndex",
            "outputs": [
                {
                    "internalType": "uint256",
                    "name": "",
                    "type": "uint256"
                }
            ],
            "stateMutability": "view",
            "type": "function"
        },
        {
            "inputs": [
                {
                    "internalType": "uint256",
                    "name": "tokenId",
                    "type": "uint256"
                }
            ],
            "name": "tokenURI",
            "outputs": [
                {
                    "internalType": "string",
                    "name": "",
                    "type": "string"
                }
            ],
            "stateMutability": "view",
            "type": "function"
        },
        {
            "inputs": [],
            "name": "totalSupply",
            "outputs": [
                {
                    "internalType": "uint256",
                    "name": "",
                    "type": "uint256"
                }
            ],
            "stateMutability": "view",
            "type": "function"
        },
        {
            "inputs": [
                {
                    "internalType": "address",
                    "name": "from",
                    "type": "address"
                },
                {
                    "internalType": "address",
                    "name": "to",
                    "type": "address"
                },
                {
                    "internalType": "uint256",
                    "name": "tokenId",
                    "type": "uint256"
                }
            ],
            "name": "transferFrom",
            "outputs": [],
            "stateMutability": "nonpayable",
            "type": "function"
        },
        {
            "inputs": [
                {
                    "internalType": "address",
                    "name": "newOwner",
                    "type": "address"
                }
            ],
            "name": "transferOwnership",
            "outputs": [],
            "stateMutability": "nonpayable",
            "type": "function"
        }
    ],
    "bytecode": "60e06040523480156200001157600080fd5b5060405162001fe238038062001fe2833981016040819052620000349162000283565b8451859085906200004d90600090602085019062000110565b5080516200006390600190602084019062000110565b505050620000806200007a620000ba60201b60201c565b620000be565b3060805261ffff831660c0526001600160a01b03821660a0528051620000ae90600b90602084019062000110565b5050505050506200038e565b3390565b600a80546001600160a01b038381166001600160a01b0319831681179093556040519116919082907f8be0079c531659141344cd1fd0a4f28419497f9722a3daafe3b4186f6b6457e090600090a35050565b8280546200011e9062000351565b90600052602060002090601f0160209004810192826200014257600085556200018d565b82601f106200015d57805160ff19168380011785556200018d565b828001600101855582156200018d579182015b828111156200018d57825182559160200191906001019062000170565b506200019b9291506200019f565b5090565b5b808211156200019b5760008155600101620001a0565b634e487b7160e01b600052604160045260246000fd5b600082601f830112620001de57600080fd5b81516001600160401b0380821115620001fb57620001fb620001b6565b604051601f8301601f19908116603f01168101908282118183101715620002265762000226620001b6565b816040528381526020925086838588010111156200024357600080fd5b600091505b8382101562000267578582018301518183018401529082019062000248565b83821115620002795760008385830101525b9695505050505050565b600080600080600060a086880312156200029c57600080fd5b85516001600160401b0380821115620002b457600080fd5b620002c289838a01620001cc565b96506020880151915080821115620002d957600080fd5b620002e789838a01620001cc565b95506040880151915061ffff821682146200030157600080fd5b60608801519194506001600160a01b03821682146200031f57600080fd5b6080880151919350808211156200033557600080fd5b506200034488828901620001cc565b9150509295509295909350565b600181811c908216806200036657607f821691505b602082108114156200038857634e487b7160e01b600052602260045260246000fd5b50919050565b60805160a05160c051611c20620003c26000396000818161033e015261092101526000610895015260005050611c206000f3fe608060405234801561001057600080fd5b506004361061018e5760003560e01c8063714c5398116100de578063a22cb46511610097578063d8cfb99911610071578063d8cfb99914610331578063e831574214610339578063e985e9c514610373578063f2fde38b146103af57600080fd5b8063a22cb465146102f8578063b88d4fde1461030b578063c87b56dd1461031e57600080fd5b8063714c5398146102b4578063715018a6146102bc57806383c4c00d146102c45780638da5cb5b146102cc57806394bf804d146102dd57806395d89b41146102f057600080fd5b80632f745c591161014b5780634f6ccce7116101255780634f6ccce71461026857806355f804b31461027b5780636352211e1461028e57806370a08231146102a157600080fd5b80632f745c5914610235578063346de50a1461024857806342842e0e1461025557600080fd5b806301ffc9a71461019357806306fdde03146101bb578063081812fc146101d0578063095ea7b3146101fb57806318160ddd1461021057806323b872dd14610222575b600080fd5b6101a66101a1366004611621565b6103c2565b60405190151581526020015b60405180910390f35b6101c36103ed565b6040516101b2919061169d565b6101e36101de3660046116b0565b61047f565b6040516001600160a01b0390911681526020016101b2565b61020e6102093660046116e5565b6104a6565b005b6008545b6040519081526020016101b2565b61020e61023036600461170f565b6105c1565b6102146102433660046116e5565b6105f2565b600d546101a69060ff1681565b61020e61026336600461170f565b610688565b6102146102763660046116b0565b6106a3565b61020e6102893660046117d7565b610736565b6101e361029c3660046116b0565b610793565b6102146102af366004611820565b6107f3565b6101c3610879565b61020e610888565b6102146108bb565b600a546001600160a01b03166101e3565b61020e6102eb36600461183b565b6108cb565b6101c36109e6565b61020e610306366004611867565b6109f5565b61020e6103193660046118a3565b610a04565b6101c361032c3660046116b0565b610a36565b61020e610abb565b6103607f000000000000000000000000000000000000000000000000000000000000000081565b60405161ffff90911681526020016101b2565b6101a661038136600461191f565b6001600160a01b03918216600090815260056020908152604080832093909416825291909152205460ff1690565b61020e6103bd366004611820565b610b10565b60006001600160e01b0319821663780e9d6360e01b14806103e757506103e782610b89565b92915050565b6060600080546103fc90611949565b80601f016020809104026020016040519081016040528092919081815260200182805461042890611949565b80156104755780601f1061044a57610100808354040283529160200191610475565b820191906000526020600020905b81548152906001019060200180831161045857829003601f168201915b5050505050905090565b600061048a82610bd9565b506000908152600460205260409020546001600160a01b031690565b60006104b182610793565b9050806001600160a01b0316836001600160a01b031614156105245760405162461bcd60e51b815260206004820152602160248201527f4552433732313a20617070726f76616c20746f2063757272656e74206f776e656044820152603960f91b60648201526084015b60405180910390fd5b336001600160a01b038216148061054057506105408133610381565b6105b25760405162461bcd60e51b815260206004820152603e60248201527f4552433732313a20617070726f76652063616c6c6572206973206e6f7420746f60448201527f6b656e206f776e6572206e6f7220617070726f76656420666f7220616c6c0000606482015260840161051b565b6105bc8383610c38565b505050565b6105cb3382610ca6565b6105e75760405162461bcd60e51b815260040161051b90611984565b6105bc838383610d25565b60006105fd836107f3565b821061065f5760405162461bcd60e51b815260206004820152602b60248201527f455243373231456e756d657261626c653a206f776e657220696e646578206f7560448201526a74206f6620626f756e647360a81b606482015260840161051b565b506001600160a01b03919091166000908152600660209081526040808320938352929052205490565b6105bc83838360405180602001604052806000815250610a04565b60006106ae60085490565b82106107115760405162461bcd60e51b815260206004820152602c60248201527f455243373231456e756d657261626c653a20676c6f62616c20696e646578206f60448201526b7574206f6620626f756e647360a01b606482015260840161051b565b60088281548110610724576107246119d2565b90600052602060002001549050919050565b61073e610ecc565b805161075190600b906020840190611572565b508060405161076091906119e8565b604051908190038120907f87cdeaffd8e70903d6ce7cc983fac3b09ca79e83818124c98e47a1d70f8027d690600090a250565b6000818152600260205260408120546001600160a01b0316806103e75760405162461bcd60e51b8152602060048201526018602482015277115490cdcc8c4e881a5b9d985b1a59081d1bdad95b88125160421b604482015260640161051b565b60006001600160a01b03821661085d5760405162461bcd60e51b815260206004820152602960248201527f4552433732313a2061646472657373207a65726f206973206e6f7420612076616044820152683634b21037bbb732b960b91b606482015260840161051b565b506001600160a01b031660009081526003602052604090205490565b6060600b80546103fc90611949565b610890610ecc565b6108b97f0000000000000000000000000000000000000000000000000000000000000000610f26565b565b60006108c6600c5490565b905090565b600d5460ff166109165760405162461bcd60e51b8152602060048201526016602482015275135a5b9d1a5b99c81a5cc81b9bdd08195b98589b195960521b604482015260640161051b565b61091e610ecc565b817f000000000000000000000000000000000000000000000000000000000000000061ffff168161094e600c5490565b6109589190611a1a565b11156109b25760405162461bcd60e51b815260206004820152602360248201527f4e6f7420656e6f75676820746f6b656e732072656d61696e696e6720746f206d6044820152621a5b9d60ea1b606482015260840161051b565b60005b838110156109e0576109ce836109c9610f78565b610f8f565b806109d881611a32565b9150506109b5565b50505050565b6060600180546103fc90611949565b610a00338383610fa9565b5050565b610a0e3383610ca6565b610a2a5760405162461bcd60e51b815260040161051b90611984565b6109e084848484611078565b6000818152600260205260409020546060906001600160a01b0316610a915760405162461bcd60e51b81526020600482015260116024820152702737b732bc34b9ba32b73a103a37b5b2b760791b604482015260640161051b565b600b82604051602001610aa5929190611a4d565b6040516020818303038152906040529050919050565b610ac3610ecc565b600d805460ff8082161560ff1990921682179092556040519116151581527fb304fe5dd2d3c45e8ec87c1dd1bd2b3a773b3135e84a7b9151f5fb4bf1a06d0e9060200160405180910390a1565b610b18610ecc565b6001600160a01b038116610b7d5760405162461bcd60e51b815260206004820152602660248201527f4f776e61626c653a206e6577206f776e657220697320746865207a65726f206160448201526564647265737360d01b606482015260840161051b565b610b8681610f26565b50565b60006001600160e01b031982166380ac58cd60e01b1480610bba57506001600160e01b03198216635b5e139f60e01b145b806103e757506301ffc9a760e01b6001600160e01b03198316146103e7565b6000818152600260205260409020546001600160a01b0316610b865760405162461bcd60e51b8152602060048201526018602482015277115490cdcc8c4e881a5b9d985b1a59081d1bdad95b88125160421b604482015260640161051b565b600081815260046020526040902080546001600160a01b0319166001600160a01b0384169081179091558190610c6d82610793565b6001600160a01b03167f8c5be1e5ebec7d5bd14f71427d1e84f3dd0314c0f7b2291e5b200ac8c7c3b92560405160405180910390a45050565b600080610cb283610793565b9050806001600160a01b0316846001600160a01b03161480610cf957506001600160a01b0380821660009081526005602090815260408083209388168352929052205460ff165b80610d1d5750836001600160a01b0316610d128461047f565b6001600160a01b0316145b949350505050565b826001600160a01b0316610d3882610793565b6001600160a01b031614610d9c5760405162461bcd60e51b815260206004820152602560248201527f4552433732313a207472616e736665722066726f6d20696e636f72726563742060448201526437bbb732b960d91b606482015260840161051b565b6001600160a01b038216610dfe5760405162461bcd60e51b8152602060048201526024808201527f4552433732313a207472616e7366657220746f20746865207a65726f206164646044820152637265737360e01b606482015260840161051b565b610e098383836110ab565b610e14600082610c38565b6001600160a01b0383166000908152600360205260408120805460019290610e3d908490611b11565b90915550506001600160a01b0382166000908152600360205260408120805460019290610e6b908490611a1a565b909155505060008181526002602052604080822080546001600160a01b0319166001600160a01b0386811691821790925591518493918716917fddf252ad1be2c89b69c2b068fc378daa952ba7f163c4a11628f55a4df523b3ef91a4505050565b600a546001600160a01b031633146108b95760405162461bcd60e51b815260206004820181905260248201527f4f776e61626c653a2063616c6c6572206973206e6f7420746865206f776e6572604482015260640161051b565b600a80546001600160a01b038381166001600160a01b0319831681179093556040519116919082907f8be0079c531659141344cd1fd0a4f28419497f9722a3daafe3b4186f6b6457e090600090a35050565b6000610f88600c80546001019055565b50600c5490565b610a00828260405180602001604052806000815250611163565b816001600160a01b0316836001600160a01b0316141561100b5760405162461bcd60e51b815260206004820152601960248201527f4552433732313a20617070726f766520746f2063616c6c657200000000000000604482015260640161051b565b6001600160a01b03838116600081815260056020908152604080832094871680845294825291829020805460ff191686151590811790915591519182527f17307eab39ab6107e8899845ad3d59bd9653f200f220920489ca2b5937696c31910160405180910390a3505050565b611083848484610d25565b61108f84848484611196565b6109e05760405162461bcd60e51b815260040161051b90611b28565b6001600160a01b0383166111065761110181600880546000838152600960205260408120829055600182018355919091527ff3f7a9fe364faab93b216da50a3214154f22a0a2b415b23a84c8169e8b636ee30155565b611129565b816001600160a01b0316836001600160a01b031614611129576111298382611294565b6001600160a01b038216611140576105bc81611331565b826001600160a01b0316826001600160a01b0316146105bc576105bc82826113e0565b61116d8383611424565b61117a6000848484611196565b6105bc5760405162461bcd60e51b815260040161051b90611b28565b60006001600160a01b0384163b1561128957604051630a85bd0160e11b81526001600160a01b0385169063150b7a02906111da903390899088908890600401611b7a565b6020604051808303816000875af1925050508015611215575060408051601f3d908101601f1916820190925261121291810190611bb7565b60015b61126f573d808015611243576040519150601f19603f3d011682016040523d82523d6000602084013e611248565b606091505b5080516112675760405162461bcd60e51b815260040161051b90611b28565b805181602001fd5b6001600160e01b031916630a85bd0160e11b149050610d1d565b506001949350505050565b600060016112a1846107f3565b6112ab9190611b11565b6000838152600760205260409020549091508082146112fe576001600160a01b03841660009081526006602090815260408083208584528252808320548484528184208190558352600790915290208190555b5060009182526007602090815260408084208490556001600160a01b039094168352600681528383209183525290812055565b60085460009061134390600190611b11565b6000838152600960205260408120546008805493945090928490811061136b5761136b6119d2565b90600052602060002001549050806008838154811061138c5761138c6119d2565b60009182526020808320909101929092558281526009909152604080822084905585825281205560088054806113c4576113c4611bd4565b6001900381819060005260206000200160009055905550505050565b60006113eb836107f3565b6001600160a01b039093166000908152600660209081526040808320868452825280832085905593825260079052919091209190915550565b6001600160a01b03821661147a5760405162461bcd60e51b815260206004820181905260248201527f4552433732313a206d696e7420746f20746865207a65726f2061646472657373604482015260640161051b565b6000818152600260205260409020546001600160a01b0316156114df5760405162461bcd60e51b815260206004820152601c60248201527f4552433732313a20746f6b656e20616c7265616479206d696e74656400000000604482015260640161051b565b6114eb600083836110ab565b6001600160a01b0382166000908152600360205260408120805460019290611514908490611a1a565b909155505060008181526002602052604080822080546001600160a01b0319166001600160a01b03861690811790915590518392907fddf252ad1be2c89b69c2b068fc378daa952ba7f163c4a11628f55a4df523b3ef908290a45050565b82805461157e90611949565b90600052602060002090601f0160209004810192826115a057600085556115e6565b82601f106115b957805160ff19168380011785556115e6565b828001600101855582156115e6579182015b828111156115e65782518255916020019190600101906115cb565b506115f29291506115f6565b5090565b5b808211156115f257600081556001016115f7565b6001600160e01b031981168114610b8657600080fd5b60006020828403121561163357600080fd5b813561163e8161160b565b9392505050565b60005b83811015611660578181015183820152602001611648565b838111156109e05750506000910152565b60008151808452611689816020860160208601611645565b601f01601f19169290920160200192915050565b60208152600061163e6020830184611671565b6000602082840312156116c257600080fd5b5035919050565b80356001600160a01b03811681146116e057600080fd5b919050565b600080604083850312156116f857600080fd5b611701836116c9565b946020939093013593505050565b60008060006060848603121561172457600080fd5b61172d846116c9565b925061173b602085016116c9565b9150604084013590509250925092565b634e487b7160e01b600052604160045260246000fd5b600067ffffffffffffffff8084111561177c5761177c61174b565b604051601f8501601f19908116603f011681019082821181831017156117a4576117a461174b565b816040528093508581528686860111156117bd57600080fd5b858560208301376000602087830101525050509392505050565b6000602082840312156117e957600080fd5b813567ffffffffffffffff81111561180057600080fd5b8201601f8101841361181157600080fd5b610d1d84823560208401611761565b60006020828403121561183257600080fd5b61163e826116c9565b6000806040838503121561184e57600080fd5b8235915061185e602084016116c9565b90509250929050565b6000806040838503121561187a57600080fd5b611883836116c9565b91506020830135801515811461189857600080fd5b809150509250929050565b600080600080608085870312156118b957600080fd5b6118c2856116c9565b93506118d0602086016116c9565b925060408501359150606085013567ffffffffffffffff8111156118f357600080fd5b8501601f8101871361190457600080fd5b61191387823560208401611761565b91505092959194509250565b6000806040838503121561193257600080fd5b61193b836116c9565b915061185e602084016116c9565b600181811c9082168061195d57607f821691505b6020821081141561197e57634e487b7160e01b600052602260045260246000fd5b50919050565b6020808252602e908201527f4552433732313a2063616c6c6572206973206e6f7420746f6b656e206f776e6560408201526d1c881b9bdc88185c1c1c9bdd995960921b606082015260800190565b634e487b7160e01b600052603260045260246000fd5b600082516119fa818460208701611645565b9190910192915050565b634e487b7160e01b600052601160045260246000fd5b60008219821115611a2d57611a2d611a04565b500190565b6000600019821415611a4657611a46611a04565b5060010190565b600080845481600182811c915080831680611a6957607f831692505b6020808410821415611a8957634e487b7160e01b86526022600452602486fd5b818015611a9d5760018114611aae57611adb565b60ff19861689528489019650611adb565b60008b81526020902060005b86811015611ad35781548b820152908501908301611aba565b505084890196505b50602f60f81b8652600186019550888652611b0381870164173539b7b760d91b815260050190565b9a9950505050505050505050565b600082821015611b2357611b23611a04565b500390565b60208082526032908201527f4552433732313a207472616e7366657220746f206e6f6e20455243373231526560408201527131b2b4bb32b91034b6b83632b6b2b73a32b960711b606082015260800190565b6001600160a01b0385811682528416602082015260408101839052608060608201819052600090611bad90830184611671565b9695505050505050565b600060208284031215611bc957600080fd5b815161163e8161160b565b634e487b7160e01b600052603160045260246000fdfea264697066735822122016c32cc6de15771d3a0b3e481bdbfb61a892c0b0c158daa2d3bb6d767801feb664736f6c634300080b0033",
    "sourcePath": "/Users/zhe/Work/AH-XS/contracts/contracts/NFT.sol",
    "compiler": {
        "name": "solc",
        "version": "0.8.11+commit.d7f03943"
    },
    "functionHashes": {
        "approve(address,uint256)": "095ea7b3",
        "balanceOf(address)": "70a08231",
        "getApproved(uint256)": "081812fc",
        "getBaseURI()": "714c5398",
        "getLastTokenId()": "83c4c00d",
        "isApprovedForAll(address,address)": "e985e9c5",
        "isMintEnabled()": "346de50a",
        "maxTokens()": "e8315742",
        "mint(uint256,address)": "94bf804d",
        "name()": "06fdde03",
        "owner()": "8da5cb5b",
        "ownerOf(uint256)": "6352211e",
        "renounceOwnership()": "715018a6",
        "safeTransferFrom(address,address,uint256)": "42842e0e",
        "safeTransferFrom(address,address,uint256,bytes)": "b88d4fde",
        "setApprovalForAll(address,bool)": "a22cb465",
        "setBaseURI(string)": "55f804b3",
        "supportsInterface(bytes4)": "01ffc9a7",
        "symbol()": "95d89b41",
        "toggleMintStatus()": "d8cfb999",
        "tokenByIndex(uint256)": "4f6ccce7",
        "tokenOfOwnerByIndex(address,uint256)": "2f745c59",
        "tokenURI(uint256)": "c87b56dd",
        "totalSupply()": "18160ddd",
        "transferFrom(address,address,uint256)": "23b872dd",
        "transferOwnership(address)": "f2fde38b"
    },
    "gasEstimates": {
        "creation": {
            "codeDepositCost": "1440000",
            "executionCost": "infinite",
            "totalCost": "infinite"
        },
        "external": {
            "approve(address,uint256)": "infinite",
            "balanceOf(address)": "2700",
            "getApproved(uint256)": "4792",
            "getBaseURI()": "infinite",
            "getLastTokenId()": "2397",
            "isApprovedForAll(address,address)": "infinite",
            "isMintEnabled()": "2367",
            "maxTokens()": "infinite",
            "mint(uint256,address)": "infinite",
            "name()": "infinite",
            "owner()": "2420",
            "ownerOf(uint256)": "2627",
            "renounceOwnership()": "infinite",
            "safeTransferFrom(address,address,uint256)": "infinite",
            "safeTransferFrom(address,address,uint256,bytes)": "infinite",
            "setApprovalForAll(address,bool)": "26731",
            "setBaseURI(string)": "infinite",
            "supportsInterface(bytes4)": "infinite",
            "symbol()": "infinite",
            "toggleMintStatus()": "27666",
            "tokenByIndex(uint256)": "6760",
            "tokenOfOwnerByIndex(address,uint256)": "4976",
            "tokenURI(uint256)": "infinite",
            "totalSupply()": "2393",
            "transferFrom(address,address,uint256)": "infinite",
            "transferOwnership(address)": "28446"
        },
        "internal": {
            "increasedTokenId()": "26347"
        }
    }
}